{
  "contractName": "DeviceContract",
  "abi": [
    {
      "anonymous": false,
      "inputs": [
        {
          "indexed": true,
          "internalType": "address",
          "name": "addr",
          "type": "address"
        }
      ],
      "name": "DeviceDeactivated",
      "type": "event"
    },
    {
      "anonymous": false,
      "inputs": [
        {
          "indexed": true,
          "internalType": "address",
          "name": "addr",
          "type": "address"
        },
        {
          "indexed": false,
          "internalType": "string",
          "name": "deviceID",
          "type": "string"
        }
      ],
      "name": "DeviceRegistered",
      "type": "event"
    },
    {
      "anonymous": false,
      "inputs": [
        {
          "indexed": true,
          "internalType": "address",
          "name": "addr",
          "type": "address"
        },
        {
          "indexed": false,
          "internalType": "string",
          "name": "details",
          "type": "string"
        }
      ],
      "name": "DeviceUpdated",
      "type": "event"
    },
    {
      "inputs": [
        {
          "internalType": "uint256",
          "name": "",
          "type": "uint256"
        }
      ],
      "name": "deviceList",
      "outputs": [
        {
          "internalType": "address",
          "name": "",
          "type": "address"
        }
      ],
      "stateMutability": "view",
      "type": "function",
      "constant": true
    },
    {
      "inputs": [
        {
          "internalType": "address",
          "name": "",
          "type": "address"
        }
      ],
      "name": "devices",
      "outputs": [
        {
          "internalType": "string",
          "name": "deviceID",
          "type": "string"
        },
        {
          "internalType": "address",
          "name": "ownerAddr",
          "type": "address"
        },
        {
          "internalType": "string",
          "name": "manufacturer",
          "type": "string"
        },
        {
          "internalType": "string",
          "name": "deviceType",
          "type": "string"
        },
        {
          "internalType": "string",
          "name": "model",
          "type": "string"
        },
        {
          "internalType": "bool",
          "name": "isActive",
          "type": "bool"
        },
        {
          "internalType": "string",
          "name": "statusDetails",
          "type": "string"
        },
        {
          "internalType": "uint256",
          "name": "lastUpdated",
          "type": "uint256"
        }
      ],
      "stateMutability": "view",
      "type": "function",
      "constant": true
    },
    {
      "inputs": [
        {
          "internalType": "address",
          "name": "addr",
          "type": "address"
        },
        {
          "internalType": "string",
          "name": "deviceID",
          "type": "string"
        },
        {
          "internalType": "address",
          "name": "ownerAddr",
          "type": "address"
        },
        {
          "internalType": "string",
          "name": "manufacturer",
          "type": "string"
        },
        {
          "internalType": "string",
          "name": "deviceType",
          "type": "string"
        },
        {
          "internalType": "string",
          "name": "model",
          "type": "string"
        }
      ],
      "name": "registerDevice",
      "outputs": [],
      "stateMutability": "nonpayable",
      "type": "function"
    },
    {
      "inputs": [
        {
          "internalType": "address",
          "name": "addr",
          "type": "address"
        },
        {
          "internalType": "string",
          "name": "statusDetails",
          "type": "string"
        },
        {
          "internalType": "bool",
          "name": "isActive",
          "type": "bool"
        }
      ],
      "name": "updateDeviceStatus",
      "outputs": [],
      "stateMutability": "nonpayable",
      "type": "function"
    },
    {
      "inputs": [
        {
          "internalType": "address",
          "name": "addr",
          "type": "address"
        }
      ],
      "name": "isDeviceRegistered",
      "outputs": [
        {
          "internalType": "bool",
          "name": "",
          "type": "bool"
        }
      ],
      "stateMutability": "view",
      "type": "function",
      "constant": true
    }
  ],
  "bytecode": "0x608060405234801561001057600080fd5b50611281806100206000396000f3fe608060405234801561001057600080fd5b50600436106100575760003560e01c8063443ff78e1461005c57806345138e8314610078578063659228c914610094578063979ebb42146100c4578063e7b4cac6146100f4575b600080fd5b61007660048036038101906100719190610d31565b61012b565b005b610092600480360381019061008d9190610e66565b61047f565b005b6100ae60048036038101906100a99190610ed5565b6106e0565b6040516100bb9190610f11565b60405180910390f35b6100de60048036038101906100d99190610f62565b61077a565b6040516100eb9190610f9e565b60405180910390f35b61010e60048036038101906101099190610ed5565b6107b9565b604051610122989796959493929190611050565b60405180910390f35b600073ffffffffffffffffffffffffffffffffffffffff166000808873ffffffffffffffffffffffffffffffffffffffff1673ffffffffffffffffffffffffffffffffffffffff16815260200190815260200160002060010160009054906101000a900473ffffffffffffffffffffffffffffffffffffffff1673ffffffffffffffffffffffffffffffffffffffff16146101fb576040517f08c379a00000000000000000000000000000000000000000000000000000000081526004016101f29061113d565b60405180910390fd5b6040518061010001604052808681526020018573ffffffffffffffffffffffffffffffffffffffff1681526020018481526020018381526020018281526020016001151581526020016040518060400160405280600b81526020017f4f7065726174696f6e616c0000000000000000000000000000000000000000008152508152602001428152506000808873ffffffffffffffffffffffffffffffffffffffff1673ffffffffffffffffffffffffffffffffffffffff16815260200190815260200160002060008201518160000190805190602001906102dd929190610ad6565b5060208201518160010160006101000a81548173ffffffffffffffffffffffffffffffffffffffff021916908373ffffffffffffffffffffffffffffffffffffffff1602179055506040820151816002019080519060200190610341929190610ad6565b50606082015181600301908051906020019061035e929190610ad6565b50608082015181600401908051906020019061037b929190610ad6565b5060a08201518160050160006101000a81548160ff02191690831515021790555060c08201518160060190805190602001906103b8929190610ad6565b5060e082015181600701559050506001869080600181540180825580915050600190039060005260206000200160009091909190916101000a81548173ffffffffffffffffffffffffffffffffffffffff021916908373ffffffffffffffffffffffffffffffffffffffff1602179055508573ffffffffffffffffffffffffffffffffffffffff167f40ee62d3a0cf66ef791a7a1f9d6d563ec877b394b8f5c097b6238ac82a68c0e28660405161046f919061115d565b60405180910390a2505050505050565b600073ffffffffffffffffffffffffffffffffffffffff166000808573ffffffffffffffffffffffffffffffffffffffff1673ffffffffffffffffffffffffffffffffffffffff16815260200190815260200160002060010160009054906101000a900473ffffffffffffffffffffffffffffffffffffffff1673ffffffffffffffffffffffffffffffffffffffff160361054f576040517f08c379a0000000000000000000000000000000000000000000000000000000008152600401610546906111cb565b60405180910390fd5b816000808573ffffffffffffffffffffffffffffffffffffffff1673ffffffffffffffffffffffffffffffffffffffff16815260200190815260200160002060060190805190602001906105a4929190610ad6565b50806000808573ffffffffffffffffffffffffffffffffffffffff1673ffffffffffffffffffffffffffffffffffffffff16815260200190815260200160002060050160006101000a81548160ff021916908315150217905550426000808573ffffffffffffffffffffffffffffffffffffffff1673ffffffffffffffffffffffffffffffffffffffff168152602001908152602001600020600701819055508273ffffffffffffffffffffffffffffffffffffffff167fe8d052867c5bb46eedaac622b71bb80ba20019d40b846c6501368512ecafc9718360405161068a919061115d565b60405180910390a2806106db578273ffffffffffffffffffffffffffffffffffffffff167fca2220ee93ea32595f56c66fee84698b8ff679dad662cde58c0e54d54e5af98360405160405180910390a25b505050565b60008073ffffffffffffffffffffffffffffffffffffffff166000808473ffffffffffffffffffffffffffffffffffffffff1673ffffffffffffffffffffffffffffffffffffffff16815260200190815260200160002060010160009054906101000a900473ffffffffffffffffffffffffffffffffffffffff1673ffffffffffffffffffffffffffffffffffffffff1614159050919050565b6001818154811061078a57600080fd5b906000526020600020016000915054906101000a900473ffffffffffffffffffffffffffffffffffffffff1681565b60006020528060005260406000206000915090508060000180546107dc9061121a565b80601f01602080910402602001604051908101604052809291908181526020018280546108089061121a565b80156108555780601f1061082a57610100808354040283529160200191610855565b820191906000526020600020905b81548152906001019060200180831161083857829003601f168201915b5050505050908060010160009054906101000a900473ffffffffffffffffffffffffffffffffffffffff16908060020180546108909061121a565b80601f01602080910402602001604051908101604052809291908181526020018280546108bc9061121a565b80156109095780601f106108de57610100808354040283529160200191610909565b820191906000526020600020905b8154815290600101906020018083116108ec57829003601f168201915b50505050509080600301805461091e9061121a565b80601f016020809104026020016040519081016040528092919081815260200182805461094a9061121a565b80156109975780601f1061096c57610100808354040283529160200191610997565b820191906000526020600020905b81548152906001019060200180831161097a57829003601f168201915b5050505050908060040180546109ac9061121a565b80601f01602080910402602001604051908101604052809291908181526020018280546109d89061121a565b8015610a255780601f106109fa57610100808354040283529160200191610a25565b820191906000526020600020905b815481529060010190602001808311610a0857829003601f168201915b5050505050908060050160009054906101000a900460ff1690806006018054610a4d9061121a565b80601f0160208091040260200160405190810160405280929190818152602001828054610a799061121a565b8015610ac65780601f10610a9b57610100808354040283529160200191610ac6565b820191906000526020600020905b815481529060010190602001808311610aa957829003601f168201915b5050505050908060070154905088565b828054610ae29061121a565b90600052602060002090601f016020900481019282610b045760008555610b4b565b82601f10610b1d57805160ff1916838001178555610b4b565b82800160010185558215610b4b579182015b82811115610b4a578251825591602001919060010190610b2f565b5b509050610b589190610b5c565b5090565b5b80821115610b75576000816000905550600101610b5d565b5090565b6000604051905090565b600080fd5b600080fd5b600073ffffffffffffffffffffffffffffffffffffffff82169050919050565b6000610bb882610b8d565b9050919050565b610bc881610bad565b8114610bd357600080fd5b50565b600081359050610be581610bbf565b92915050565b600080fd5b600080fd5b6000601f19601f8301169050919050565b7f4e487b7100000000000000000000000000000000000000000000000000000000600052604160045260246000fd5b610c3e82610bf5565b810181811067ffffffffffffffff82111715610c5d57610c5c610c06565b5b80604052505050565b6000610c70610b79565b9050610c7c8282610c35565b919050565b600067ffffffffffffffff821115610c9c57610c9b610c06565b5b610ca582610bf5565b9050602081019050919050565b82818337600083830152505050565b6000610cd4610ccf84610c81565b610c66565b905082815260208101848484011115610cf057610cef610bf0565b5b610cfb848285610cb2565b509392505050565b600082601f830112610d1857610d17610beb565b5b8135610d28848260208601610cc1565b91505092915050565b60008060008060008060c08789031215610d4e57610d4d610b83565b5b6000610d5c89828a01610bd6565b965050602087013567ffffffffffffffff811115610d7d57610d7c610b88565b5b610d8989828a01610d03565b9550506040610d9a89828a01610bd6565b945050606087013567ffffffffffffffff811115610dbb57610dba610b88565b5b610dc789828a01610d03565b935050608087013567ffffffffffffffff811115610de857610de7610b88565b5b610df489828a01610d03565b92505060a087013567ffffffffffffffff811115610e1557610e14610b88565b5b610e2189828a01610d03565b9150509295509295509295565b60008115159050919050565b610e4381610e2e565b8114610e4e57600080fd5b50565b600081359050610e6081610e3a565b92915050565b600080600060608486031215610e7f57610e7e610b83565b5b6000610e8d86828701610bd6565b935050602084013567ffffffffffffffff811115610eae57610ead610b88565b5b610eba86828701610d03565b9250506040610ecb86828701610e51565b9150509250925092565b600060208284031215610eeb57610eea610b83565b5b6000610ef984828501610bd6565b91505092915050565b610f0b81610e2e565b82525050565b6000602082019050610f266000830184610f02565b92915050565b6000819050919050565b610f3f81610f2c565b8114610f4a57600080fd5b50565b600081359050610f5c81610f36565b92915050565b600060208284031215610f7857610f77610b83565b5b6000610f8684828501610f4d565b91505092915050565b610f9881610bad565b82525050565b6000602082019050610fb36000830184610f8f565b92915050565b600081519050919050565b600082825260208201905092915050565b60005b83811015610ff3578082015181840152602081019050610fd8565b83811115611002576000848401525b50505050565b600061101382610fb9565b61101d8185610fc4565b935061102d818560208601610fd5565b61103681610bf5565b840191505092915050565b61104a81610f2c565b82525050565b600061010082019050818103600083015261106b818b611008565b905061107a602083018a610f8f565b818103604083015261108c8189611008565b905081810360608301526110a08188611008565b905081810360808301526110b48187611008565b90506110c360a0830186610f02565b81810360c08301526110d58185611008565b90506110e460e0830184611041565b9998505050505050505050565b7f44657669636520616c7265616479207265676973746572656400000000000000600082015250565b6000611127601983610fc4565b9150611132826110f1565b602082019050919050565b600060208201905081810360008301526111568161111a565b9050919050565b600060208201905081810360008301526111778184611008565b905092915050565b7f446576696365206e6f7420726567697374657265640000000000000000000000600082015250565b60006111b5601583610fc4565b91506111c08261117f565b602082019050919050565b600060208201905081810360008301526111e4816111a8565b9050919050565b7f4e487b7100000000000000000000000000000000000000000000000000000000600052602260045260246000fd5b6000600282049050600182168061123257607f821691505b602082108103611245576112446111eb565b5b5091905056fea26469706673582212200c00395cb844f37e63bddef38373684e95de96a0022e6350ed1f892b828f5bd064736f6c634300080d0033",
  "immutableReferences": {},
  "source": "// SPDX-License-Identifier: MIT\npragma solidity >=0.4.22 <0.9.0;\n\ncontract DeviceContract {\n    struct Device {\n        string deviceID;\n        address ownerAddr;\n        string manufacturer;\n        string deviceType;\n        string model;\n        bool isActive;\n        string statusDetails;\n        uint256 lastUpdated;\n    }\n\n    mapping(address => Device) public devices;\n    address[] public deviceList;\n\n    event DeviceRegistered(address indexed addr, string deviceID);\n    event DeviceUpdated(address indexed addr, string details);\n    event DeviceDeactivated(address indexed addr);\n\n    // Register a new device in the system\n    function registerDevice(\n        address addr, \n        string memory deviceID, \n        address ownerAddr, \n        string memory manufacturer, \n        string memory deviceType, \n        string memory model\n    ) public {\n        require(devices[addr].ownerAddr == address(0), \"Device already registered\");\n\n        devices[addr] = Device({\n            deviceID: deviceID,\n            ownerAddr: ownerAddr,\n            manufacturer: manufacturer,\n            deviceType: deviceType,\n            model: model,\n            isActive: true,\n            statusDetails: \"Operational\",\n            lastUpdated: block.timestamp\n        });\n\n        deviceList.push(addr);\n        emit DeviceRegistered(addr, deviceID);\n    }\n\n    // Update the status of an existing device\n    function updateDeviceStatus(address addr, string memory statusDetails, bool isActive) public {\n        require(devices[addr].ownerAddr != address(0), \"Device not registered\");\n\n        devices[addr].statusDetails = statusDetails;\n        devices[addr].isActive = isActive;\n        devices[addr].lastUpdated = block.timestamp;\n\n        emit DeviceUpdated(addr, statusDetails);\n        if (!isActive) {\n            emit DeviceDeactivated(addr);\n        }\n    }\n\n    // Check if a device is registered\n    function isDeviceRegistered(address addr) public view returns (bool) {\n        return devices[addr].ownerAddr != address(0);\n    }\n}\n",
  "sourcePath": "/Users/teja/Desktop/new_project/market_contracts/contracts/DeviceContract.sol",
  "compiler": {
    "name": "solc",
    "version": "0.8.13+commit.abaa5c0e.Emscripten.clang"
  },
  "schemaVersion": "3.4.16",
  "updatedAt": "2024-04-17T18:53:08.485Z",
  "networkType": "ethereum",
  "devdoc": {
    "kind": "dev",
    "methods": {},
    "version": 1
  },
  "userdoc": {
    "kind": "user",
    "methods": {},
    "version": 1
  }
}