{
  "contractName": "PaymentContract",
  "abi": [
    {
      "inputs": [],
      "stateMutability": "nonpayable",
      "type": "constructor"
    },
    {
      "anonymous": false,
      "inputs": [
        {
          "indexed": false,
          "internalType": "address",
          "name": "from",
          "type": "address"
        },
        {
          "indexed": false,
          "internalType": "uint256",
          "name": "amount",
          "type": "uint256"
        },
        {
          "indexed": false,
          "internalType": "string",
          "name": "productId",
          "type": "string"
        }
      ],
      "name": "PaymentReceived",
      "type": "event"
    },
    {
      "anonymous": false,
      "inputs": [
        {
          "indexed": false,
          "internalType": "uint256",
          "name": "paymentToProvider",
          "type": "uint256"
        },
        {
          "indexed": false,
          "internalType": "uint256",
          "name": "marketplaceFee",
          "type": "uint256"
        },
        {
          "indexed": false,
          "internalType": "string",
          "name": "productId",
          "type": "string"
        }
      ],
      "name": "PaymentSplit",
      "type": "event"
    },
    {
      "anonymous": false,
      "inputs": [
        {
          "indexed": false,
          "internalType": "address",
          "name": "subscriber",
          "type": "address"
        },
        {
          "indexed": false,
          "internalType": "string",
          "name": "productId",
          "type": "string"
        },
        {
          "indexed": false,
          "internalType": "uint256",
          "name": "duration",
          "type": "uint256"
        }
      ],
      "name": "SubscriptionPurchased",
      "type": "event"
    },
    {
      "inputs": [],
      "name": "marketplaceFeePercent",
      "outputs": [
        {
          "internalType": "uint256",
          "name": "",
          "type": "uint256"
        }
      ],
      "stateMutability": "view",
      "type": "function",
      "constant": true
    },
    {
      "inputs": [],
      "name": "owner",
      "outputs": [
        {
          "internalType": "address payable",
          "name": "",
          "type": "address"
        }
      ],
      "stateMutability": "view",
      "type": "function",
      "constant": true
    },
    {
      "inputs": [
        {
          "internalType": "uint256",
          "name": "_newFeePercent",
          "type": "uint256"
        }
      ],
      "name": "setMarketplaceFee",
      "outputs": [],
      "stateMutability": "nonpayable",
      "type": "function"
    },
    {
      "inputs": [
        {
          "internalType": "string",
          "name": "productId",
          "type": "string"
        },
        {
          "internalType": "address payable",
          "name": "provider",
          "type": "address"
        }
      ],
      "name": "purchaseProduct",
      "outputs": [],
      "stateMutability": "payable",
      "type": "function",
      "payable": true
    },
    {
      "inputs": [
        {
          "internalType": "string",
          "name": "productId",
          "type": "string"
        },
        {
          "internalType": "address payable",
          "name": "provider",
          "type": "address"
        },
        {
          "internalType": "uint256",
          "name": "duration",
          "type": "uint256"
        }
      ],
      "name": "purchaseSubscription",
      "outputs": [],
      "stateMutability": "payable",
      "type": "function",
      "payable": true
    }
  ],
  "bytecode": "0x6080604052600560015534801561001557600080fd5b50336000806101000a81548173ffffffffffffffffffffffffffffffffffffffff021916908373ffffffffffffffffffffffffffffffffffffffff160217905550610ce9806100656000396000f3fe60806040526004361061004a5760003560e01c80630f0c782e1461004f57806338d73b0d1461006b5780638da5cb5b1461009657806390ce16d5146100c15780639407ea98146100dd575b600080fd5b610069600480360381019061006491906106fb565b610106565b005b34801561007757600080fd5b50610080610290565b60405161008d9190610770565b60405180910390f35b3480156100a257600080fd5b506100ab610296565b6040516100b8919061079a565b60405180910390f35b6100db60048036038101906100d691906107e1565b6102ba565b005b3480156100e957600080fd5b5061010460048036038101906100ff9190610850565b610488565b005b60003411610149576040517f08c379a000000000000000000000000000000000000000000000000000000000815260040161014090610900565b60405180910390fd5b600061015434610520565b905060008134610164919061094f565b90508273ffffffffffffffffffffffffffffffffffffffff166108fc829081150290604051600060405180830381858888f193505050501580156101ac573d6000803e3d6000fd5b5060008054906101000a900473ffffffffffffffffffffffffffffffffffffffff1673ffffffffffffffffffffffffffffffffffffffff166108fc839081150290604051600060405180830381858888f19350505050158015610213573d6000803e3d6000fd5b507f8dfc1109af223bb7f4e48f38a8a7631f492f0106b90747a651bf181b0fc4e40233348660405161024793929190610a1b565b60405180910390a17f72dafee9097f2774adffeffc49cffab145dc331a50f9048115ffc5bfc353e05981838660405161028293929190610a59565b60405180910390a150505050565b60015481565b60008054906101000a900473ffffffffffffffffffffffffffffffffffffffff1681565b600034116102fd576040517f08c379a00000000000000000000000000000000000000000000000000000000081526004016102f490610900565b60405180910390fd5b60008111610340576040517f08c379a000000000000000000000000000000000000000000000000000000000815260040161033790610b09565b60405180910390fd5b600061034b34610520565b90506000813461035b919061094f565b90508373ffffffffffffffffffffffffffffffffffffffff166108fc829081150290604051600060405180830381858888f193505050501580156103a3573d6000803e3d6000fd5b5060008054906101000a900473ffffffffffffffffffffffffffffffffffffffff1673ffffffffffffffffffffffffffffffffffffffff166108fc839081150290604051600060405180830381858888f1935050505015801561040a573d6000803e3d6000fd5b507fd3a0d4c6fb024554316f1122074a9d46118fadfecb90d5c41812a242c2106dfb33868560405161043e93929190610b29565b60405180910390a17f72dafee9097f2774adffeffc49cffab145dc331a50f9048115ffc5bfc353e05981838760405161047993929190610a59565b60405180910390a15050505050565b60008054906101000a900473ffffffffffffffffffffffffffffffffffffffff1673ffffffffffffffffffffffffffffffffffffffff163373ffffffffffffffffffffffffffffffffffffffff1614610516576040517f08c379a000000000000000000000000000000000000000000000000000000000815260040161050d90610bd9565b60405180910390fd5b8060018190555050565b60006064600154836105329190610bf9565b61053c9190610c82565b9050919050565b6000604051905090565b600080fd5b600080fd5b600080fd5b600080fd5b6000601f19601f8301169050919050565b7f4e487b7100000000000000000000000000000000000000000000000000000000600052604160045260246000fd5b6105aa82610561565b810181811067ffffffffffffffff821117156105c9576105c8610572565b5b80604052505050565b60006105dc610543565b90506105e882826105a1565b919050565b600067ffffffffffffffff82111561060857610607610572565b5b61061182610561565b9050602081019050919050565b82818337600083830152505050565b600061064061063b846105ed565b6105d2565b90508281526020810184848401111561065c5761065b61055c565b5b61066784828561061e565b509392505050565b600082601f83011261068457610683610557565b5b813561069484826020860161062d565b91505092915050565b600073ffffffffffffffffffffffffffffffffffffffff82169050919050565b60006106c88261069d565b9050919050565b6106d8816106bd565b81146106e357600080fd5b50565b6000813590506106f5816106cf565b92915050565b600080604083850312156107125761071161054d565b5b600083013567ffffffffffffffff8111156107305761072f610552565b5b61073c8582860161066f565b925050602061074d858286016106e6565b9150509250929050565b6000819050919050565b61076a81610757565b82525050565b60006020820190506107856000830184610761565b92915050565b610794816106bd565b82525050565b60006020820190506107af600083018461078b565b92915050565b6107be81610757565b81146107c957600080fd5b50565b6000813590506107db816107b5565b92915050565b6000806000606084860312156107fa576107f961054d565b5b600084013567ffffffffffffffff81111561081857610817610552565b5b6108248682870161066f565b9350506020610835868287016106e6565b9250506040610846868287016107cc565b9150509250925092565b6000602082840312156108665761086561054d565b5b6000610874848285016107cc565b91505092915050565b600082825260208201905092915050565b7f5061796d656e74206d7573742062652067726561746572207468616e207a657260008201527f6f00000000000000000000000000000000000000000000000000000000000000602082015250565b60006108ea60218361087d565b91506108f58261088e565b604082019050919050565b60006020820190508181036000830152610919816108dd565b9050919050565b7f4e487b7100000000000000000000000000000000000000000000000000000000600052601160045260246000fd5b600061095a82610757565b915061096583610757565b92508282101561097857610977610920565b5b828203905092915050565b600061098e8261069d565b9050919050565b61099e81610983565b82525050565b600081519050919050565b60005b838110156109cd5780820151818401526020810190506109b2565b838111156109dc576000848401525b50505050565b60006109ed826109a4565b6109f7818561087d565b9350610a078185602086016109af565b610a1081610561565b840191505092915050565b6000606082019050610a306000830186610995565b610a3d6020830185610761565b8181036040830152610a4f81846109e2565b9050949350505050565b6000606082019050610a6e6000830186610761565b610a7b6020830185610761565b8181036040830152610a8d81846109e2565b9050949350505050565b7f537562736372697074696f6e206475726174696f6e206d75737420626520706f60008201527f7369746976650000000000000000000000000000000000000000000000000000602082015250565b6000610af360268361087d565b9150610afe82610a97565b604082019050919050565b60006020820190508181036000830152610b2281610ae6565b9050919050565b6000606082019050610b3e6000830186610995565b8181036020830152610b5081856109e2565b9050610b5f6040830184610761565b949350505050565b7f4f6e6c7920746865206f776e65722063616e20706572666f726d20746869732060008201527f616374696f6e0000000000000000000000000000000000000000000000000000602082015250565b6000610bc360268361087d565b9150610bce82610b67565b604082019050919050565b60006020820190508181036000830152610bf281610bb6565b9050919050565b6000610c0482610757565b9150610c0f83610757565b9250817fffffffffffffffffffffffffffffffffffffffffffffffffffffffffffffffff0483118215151615610c4857610c47610920565b5b828202905092915050565b7f4e487b7100000000000000000000000000000000000000000000000000000000600052601260045260246000fd5b6000610c8d82610757565b9150610c9883610757565b925082610ca857610ca7610c53565b5b82820490509291505056fea26469706673582212207f3e30b66c95b0bbd2368fda7517f2056c124a945b650451b1afb02211d0606564736f6c634300080d0033",
  "immutableReferences": {},
  "source": "// SPDX-License-Identifier: MIT\npragma solidity >=0.4.22 <0.9.0;\n\ncontract PaymentContract {\n    address payable public owner;\n    uint public marketplaceFeePercent = 5; // Marketplace fee as a percentage of total sales\n\n    event PaymentReceived(address from, uint amount, string productId);\n    event PaymentSplit(uint paymentToProvider, uint marketplaceFee, string productId);\n    event SubscriptionPurchased(address subscriber, string productId, uint256 duration);\n\n    constructor()  {\n        owner = payable(msg.sender); // Set the marketplace owner\n    }\n\n    modifier onlyOwner() {\n        require(msg.sender == owner, \"Only the owner can perform this action\");\n        _;\n    }\n\n    // Set the marketplace fee percentage\n    function setMarketplaceFee(uint _newFeePercent) public onlyOwner {\n        marketplaceFeePercent = _newFeePercent;\n    }\n\n    // Handle one-time product purchase payments\n    function purchaseProduct(string memory productId, address payable provider) public payable {\n        require(msg.value > 0, \"Payment must be greater than zero\");\n\n        uint marketplaceFee = calculateMarketplaceFee(msg.value);\n        uint paymentToProvider = msg.value - marketplaceFee;\n\n        // Transfer funds to the provider\n        provider.transfer(paymentToProvider);\n        // Transfer marketplace fee to the owner\n        owner.transfer(marketplaceFee);\n\n        emit PaymentReceived(msg.sender, msg.value, productId);\n        emit PaymentSplit(paymentToProvider, marketplaceFee, productId);\n    }\n\n    // Handle subscription purchase payments\n    function purchaseSubscription(string memory productId, address payable provider, uint256 duration) public payable {\n        require(msg.value > 0, \"Payment must be greater than zero\");\n        require(duration > 0, \"Subscription duration must be positive\");\n\n        uint marketplaceFee = calculateMarketplaceFee(msg.value);\n        uint paymentToProvider = msg.value - marketplaceFee;\n\n        // Transfer funds to the provider\n        provider.transfer(paymentToProvider);\n        // Transfer marketplace fee to the owner\n        owner.transfer(marketplaceFee);\n\n        emit SubscriptionPurchased(msg.sender, productId, duration);\n        emit PaymentSplit(paymentToProvider, marketplaceFee, productId);\n    }\n\n    // Calculate the marketplace fee based on a payment amount\n    function calculateMarketplaceFee(uint _amount) private view returns (uint) {\n        return (_amount * marketplaceFeePercent) / 100;\n    }\n}\n",
  "sourcePath": "/Users/teja/Desktop/new_project/market_contracts/contracts/PaymentContract.sol",
  "compiler": {
    "name": "solc",
    "version": "0.8.13+commit.abaa5c0e.Emscripten.clang"
  },
  "schemaVersion": "3.4.16",
  "updatedAt": "2024-04-17T18:53:08.494Z",
  "networkType": "ethereum",
  "devdoc": {
    "kind": "dev",
    "methods": {},
    "version": 1
  },
  "userdoc": {
    "kind": "user",
    "methods": {},
    "version": 1
  }
}