{
  "contractName": "UserContract",
  "abi": [
    {
      "anonymous": false,
      "inputs": [
        {
          "indexed": true,
          "internalType": "address",
          "name": "userAddr",
          "type": "address"
        }
      ],
      "name": "UserDeactivated",
      "type": "event"
    },
    {
      "anonymous": false,
      "inputs": [
        {
          "indexed": true,
          "internalType": "address",
          "name": "userAddr",
          "type": "address"
        },
        {
          "indexed": false,
          "internalType": "string",
          "name": "username",
          "type": "string"
        }
      ],
      "name": "UserRegistered",
      "type": "event"
    },
    {
      "anonymous": false,
      "inputs": [
        {
          "indexed": true,
          "internalType": "address",
          "name": "userAddr",
          "type": "address"
        },
        {
          "indexed": false,
          "internalType": "string",
          "name": "username",
          "type": "string"
        }
      ],
      "name": "UserUpdated",
      "type": "event"
    },
    {
      "inputs": [
        {
          "internalType": "address",
          "name": "",
          "type": "address"
        }
      ],
      "name": "users",
      "outputs": [
        {
          "internalType": "address",
          "name": "userAddr",
          "type": "address"
        },
        {
          "internalType": "string",
          "name": "username",
          "type": "string"
        },
        {
          "internalType": "string",
          "name": "email",
          "type": "string"
        },
        {
          "internalType": "string",
          "name": "fullName",
          "type": "string"
        },
        {
          "internalType": "bool",
          "name": "isActive",
          "type": "bool"
        },
        {
          "internalType": "uint256",
          "name": "registeredOn",
          "type": "uint256"
        }
      ],
      "stateMutability": "view",
      "type": "function",
      "constant": true
    },
    {
      "inputs": [
        {
          "internalType": "address",
          "name": "userAddr",
          "type": "address"
        },
        {
          "internalType": "string",
          "name": "username",
          "type": "string"
        },
        {
          "internalType": "string",
          "name": "email",
          "type": "string"
        },
        {
          "internalType": "string",
          "name": "fullName",
          "type": "string"
        }
      ],
      "name": "registerUser",
      "outputs": [],
      "stateMutability": "nonpayable",
      "type": "function"
    },
    {
      "inputs": [
        {
          "internalType": "address",
          "name": "userAddr",
          "type": "address"
        },
        {
          "internalType": "string",
          "name": "email",
          "type": "string"
        },
        {
          "internalType": "string",
          "name": "fullName",
          "type": "string"
        }
      ],
      "name": "updateUser",
      "outputs": [],
      "stateMutability": "nonpayable",
      "type": "function"
    },
    {
      "inputs": [
        {
          "internalType": "address",
          "name": "userAddr",
          "type": "address"
        }
      ],
      "name": "deactivateUser",
      "outputs": [],
      "stateMutability": "nonpayable",
      "type": "function"
    },
    {
      "inputs": [
        {
          "internalType": "address",
          "name": "userAddr",
          "type": "address"
        }
      ],
      "name": "isUserRegistered",
      "outputs": [
        {
          "internalType": "bool",
          "name": "",
          "type": "bool"
        }
      ],
      "stateMutability": "view",
      "type": "function",
      "constant": true
    }
  ],
  "bytecode": "0x608060405234801561001057600080fd5b5061120d806100206000396000f3fe608060405234801561001057600080fd5b50600436106100575760003560e01c806310e8b22d1461005c578063163f7522146100785780631a47767b146100a8578063a87430ba146100c4578063fe69c296146100f9575b600080fd5b61007660048036038101906100719190610c8b565b610115565b005b610092600480360381019061008d9190610d16565b6103b2565b60405161009f9190610d5e565b60405180910390f35b6100c260048036038101906100bd9190610d16565b61044c565b005b6100de60048036038101906100d99190610d16565b6105bc565b6040516100f096959493929190610e29565b60405180910390f35b610113600480360381019061010e9190610e9f565b6107bd565b005b600073ffffffffffffffffffffffffffffffffffffffff166000808573ffffffffffffffffffffffffffffffffffffffff1673ffffffffffffffffffffffffffffffffffffffff16815260200190815260200160002060000160009054906101000a900473ffffffffffffffffffffffffffffffffffffffff1673ffffffffffffffffffffffffffffffffffffffff16036101e5576040517f08c379a00000000000000000000000000000000000000000000000000000000081526004016101dc90610fa6565b60405180910390fd5b6000808473ffffffffffffffffffffffffffffffffffffffff1673ffffffffffffffffffffffffffffffffffffffff16815260200190815260200160002060040160009054906101000a900460ff16610273576040517f08c379a000000000000000000000000000000000000000000000000000000000815260040161026a90611012565b60405180910390fd5b816000808573ffffffffffffffffffffffffffffffffffffffff1673ffffffffffffffffffffffffffffffffffffffff16815260200190815260200160002060020190805190602001906102c8929190610a30565b50806000808573ffffffffffffffffffffffffffffffffffffffff1673ffffffffffffffffffffffffffffffffffffffff168152602001908152602001600020600301908051906020019061031e929190610a30565b508273ffffffffffffffffffffffffffffffffffffffff167fd6136f3cad7c60bfc24bbf1548f39f766ca8bce104bf9adde3deb6237dec51df6000808673ffffffffffffffffffffffffffffffffffffffff1673ffffffffffffffffffffffffffffffffffffffff1681526020019081526020016000206001016040516103a59190611127565b60405180910390a2505050565b60008073ffffffffffffffffffffffffffffffffffffffff166000808473ffffffffffffffffffffffffffffffffffffffff1673ffffffffffffffffffffffffffffffffffffffff16815260200190815260200160002060000160009054906101000a900473ffffffffffffffffffffffffffffffffffffffff1673ffffffffffffffffffffffffffffffffffffffff1614159050919050565b600073ffffffffffffffffffffffffffffffffffffffff166000808373ffffffffffffffffffffffffffffffffffffffff1673ffffffffffffffffffffffffffffffffffffffff16815260200190815260200160002060000160009054906101000a900473ffffffffffffffffffffffffffffffffffffffff1673ffffffffffffffffffffffffffffffffffffffff160361051c576040517f08c379a000000000000000000000000000000000000000000000000000000000815260040161051390610fa6565b60405180910390fd5b60008060008373ffffffffffffffffffffffffffffffffffffffff1673ffffffffffffffffffffffffffffffffffffffff16815260200190815260200160002060040160006101000a81548160ff0219169083151502179055508073ffffffffffffffffffffffffffffffffffffffff167f5554feec4e87bc4eba14bd62f71df68156f97d26128616fbc27d28e33b35a6b460405160405180910390a250565b60006020528060005260406000206000915090508060000160009054906101000a900473ffffffffffffffffffffffffffffffffffffffff169080600101805461060590611061565b80601f016020809104026020016040519081016040528092919081815260200182805461063190611061565b801561067e5780601f106106535761010080835404028352916020019161067e565b820191906000526020600020905b81548152906001019060200180831161066157829003601f168201915b50505050509080600201805461069390611061565b80601f01602080910402602001604051908101604052809291908181526020018280546106bf90611061565b801561070c5780601f106106e15761010080835404028352916020019161070c565b820191906000526020600020905b8154815290600101906020018083116106ef57829003601f168201915b50505050509080600301805461072190611061565b80601f016020809104026020016040519081016040528092919081815260200182805461074d90611061565b801561079a5780601f1061076f5761010080835404028352916020019161079a565b820191906000526020600020905b81548152906001019060200180831161077d57829003601f168201915b5050505050908060040160009054906101000a900460ff16908060050154905086565b600073ffffffffffffffffffffffffffffffffffffffff166000808673ffffffffffffffffffffffffffffffffffffffff1673ffffffffffffffffffffffffffffffffffffffff16815260200190815260200160002060000160009054906101000a900473ffffffffffffffffffffffffffffffffffffffff1673ffffffffffffffffffffffffffffffffffffffff161461088d576040517f08c379a000000000000000000000000000000000000000000000000000000000815260040161088490611195565b60405180910390fd5b6040518060c001604052808573ffffffffffffffffffffffffffffffffffffffff168152602001848152602001838152602001828152602001600115158152602001428152506000808673ffffffffffffffffffffffffffffffffffffffff1673ffffffffffffffffffffffffffffffffffffffff16815260200190815260200160002060008201518160000160006101000a81548173ffffffffffffffffffffffffffffffffffffffff021916908373ffffffffffffffffffffffffffffffffffffffff1602179055506020820151816001019080519060200190610974929190610a30565b506040820151816002019080519060200190610991929190610a30565b5060608201518160030190805190602001906109ae929190610a30565b5060808201518160040160006101000a81548160ff02191690831515021790555060a082015181600501559050508373ffffffffffffffffffffffffffffffffffffffff167f48cac28ad4dc618e15f4c2dd5e97751182f166de97b25618318b2112aa951a2f84604051610a2291906111b5565b60405180910390a250505050565b828054610a3c90611061565b90600052602060002090601f016020900481019282610a5e5760008555610aa5565b82601f10610a7757805160ff1916838001178555610aa5565b82800160010185558215610aa5579182015b82811115610aa4578251825591602001919060010190610a89565b5b509050610ab29190610ab6565b5090565b5b80821115610acf576000816000905550600101610ab7565b5090565b6000604051905090565b600080fd5b600080fd5b600073ffffffffffffffffffffffffffffffffffffffff82169050919050565b6000610b1282610ae7565b9050919050565b610b2281610b07565b8114610b2d57600080fd5b50565b600081359050610b3f81610b19565b92915050565b600080fd5b600080fd5b6000601f19601f8301169050919050565b7f4e487b7100000000000000000000000000000000000000000000000000000000600052604160045260246000fd5b610b9882610b4f565b810181811067ffffffffffffffff82111715610bb757610bb6610b60565b5b80604052505050565b6000610bca610ad3565b9050610bd68282610b8f565b919050565b600067ffffffffffffffff821115610bf657610bf5610b60565b5b610bff82610b4f565b9050602081019050919050565b82818337600083830152505050565b6000610c2e610c2984610bdb565b610bc0565b905082815260208101848484011115610c4a57610c49610b4a565b5b610c55848285610c0c565b509392505050565b600082601f830112610c7257610c71610b45565b5b8135610c82848260208601610c1b565b91505092915050565b600080600060608486031215610ca457610ca3610add565b5b6000610cb286828701610b30565b935050602084013567ffffffffffffffff811115610cd357610cd2610ae2565b5b610cdf86828701610c5d565b925050604084013567ffffffffffffffff811115610d0057610cff610ae2565b5b610d0c86828701610c5d565b9150509250925092565b600060208284031215610d2c57610d2b610add565b5b6000610d3a84828501610b30565b91505092915050565b60008115159050919050565b610d5881610d43565b82525050565b6000602082019050610d736000830184610d4f565b92915050565b610d8281610b07565b82525050565b600081519050919050565b600082825260208201905092915050565b60005b83811015610dc2578082015181840152602081019050610da7565b83811115610dd1576000848401525b50505050565b6000610de282610d88565b610dec8185610d93565b9350610dfc818560208601610da4565b610e0581610b4f565b840191505092915050565b6000819050919050565b610e2381610e10565b82525050565b600060c082019050610e3e6000830189610d79565b8181036020830152610e508188610dd7565b90508181036040830152610e648187610dd7565b90508181036060830152610e788186610dd7565b9050610e876080830185610d4f565b610e9460a0830184610e1a565b979650505050505050565b60008060008060808587031215610eb957610eb8610add565b5b6000610ec787828801610b30565b945050602085013567ffffffffffffffff811115610ee857610ee7610ae2565b5b610ef487828801610c5d565b935050604085013567ffffffffffffffff811115610f1557610f14610ae2565b5b610f2187828801610c5d565b925050606085013567ffffffffffffffff811115610f4257610f41610ae2565b5b610f4e87828801610c5d565b91505092959194509250565b7f55736572206e6f74207265676973746572656400000000000000000000000000600082015250565b6000610f90601383610d93565b9150610f9b82610f5a565b602082019050919050565b60006020820190508181036000830152610fbf81610f83565b9050919050565b7f55736572206e6f74206163746976650000000000000000000000000000000000600082015250565b6000610ffc600f83610d93565b915061100782610fc6565b602082019050919050565b6000602082019050818103600083015261102b81610fef565b9050919050565b7f4e487b7100000000000000000000000000000000000000000000000000000000600052602260045260246000fd5b6000600282049050600182168061107957607f821691505b60208210810361108c5761108b611032565b5b50919050565b60008190508160005260206000209050919050565b600081546110b481611061565b6110be8186610d93565b945060018216600081146110d957600181146110eb5761111e565b60ff198316865260208601935061111e565b6110f485611092565b60005b83811015611116578154818901526001820191506020810190506110f7565b808801955050505b50505092915050565b6000602082019050818103600083015261114181846110a7565b905092915050565b7f5573657220616c72656164792072656769737465726564000000000000000000600082015250565b600061117f601783610d93565b915061118a82611149565b602082019050919050565b600060208201905081810360008301526111ae81611172565b9050919050565b600060208201905081810360008301526111cf8184610dd7565b90509291505056fea2646970667358221220c8fa24f1a91343ed2d8721f9de179c9458b83e1f6066a84af5f3a508d1acc46b64736f6c634300080d0033",
  "immutableReferences": {},
  "source": "// SPDX-License-Identifier: MIT\npragma solidity >=0.4.22 <0.9.0;\n\ncontract UserContract {\n    struct User {\n        address userAddr;\n        string username;\n        string email;\n        string fullName;\n        bool isActive;\n        uint256 registeredOn;\n    }\n\n    mapping(address => User) public users;\n\n    event UserRegistered(address indexed userAddr, string username);\n    event UserUpdated(address indexed userAddr, string username);\n    event UserDeactivated(address indexed userAddr);\n\n    function registerUser(\n        address userAddr, \n        string memory username, \n        string memory email, \n        string memory fullName\n    ) public {\n        require(users[userAddr].userAddr == address(0), \"User already registered\");\n        \n        users[userAddr] = User({\n            userAddr: userAddr,\n            username: username,\n            email: email,\n            fullName: fullName,\n            isActive: true,\n            registeredOn: block.timestamp\n        });\n        \n        emit UserRegistered(userAddr, username);\n    }\n\n    function updateUser(\n        address userAddr, \n        string memory email, \n        string memory fullName\n    ) public {\n        require(users[userAddr].userAddr != address(0), \"User not registered\");\n        require(users[userAddr].isActive, \"User not active\");\n        \n        users[userAddr].email = email;\n        users[userAddr].fullName = fullName;\n        \n        emit UserUpdated(userAddr, users[userAddr].username);\n    }\n\n    function deactivateUser(address userAddr) public {\n        require(users[userAddr].userAddr != address(0), \"User not registered\");\n        \n        users[userAddr].isActive = false;\n        \n        emit UserDeactivated(userAddr);\n    }\n\n    function isUserRegistered(address userAddr) public view returns (bool) {\n        return users[userAddr].userAddr != address(0);\n    }\n}\n",
  "sourcePath": "/Users/teja/Desktop/new_project/market_contracts/contracts/UserContract.sol",
  "compiler": {
    "name": "solc",
    "version": "0.8.13+commit.abaa5c0e.Emscripten.clang"
  },
  "schemaVersion": "3.4.16",
  "updatedAt": "2024-04-17T18:53:08.490Z",
  "networkType": "ethereum",
  "devdoc": {
    "kind": "dev",
    "methods": {},
    "version": 1
  },
  "userdoc": {
    "kind": "user",
    "methods": {},
    "version": 1
  }
}